S019000045787465726E616C496E746572727570742E73726563FB
S11300000C9434000C94D40A0C94FD0A0C94260B22
S11300100C9451000C9451000C9451000C94510018
S11300200C9451000C9451000C9451000C94510008
S11300300C9451000C9451000C9451000C945100F8
S11300400C9451000C9451000C9451000C945100E8
S11300500C945100DF025203C5033804AB041E059F
S1130060910504067706EA0611241FBECFE5D8E001
S1130070DEBFCDBF10E0A0E6B0E0EEEAF6E102C0DC
S113008005900D92AC38B107D9F720E0ACE8B0E0A8
S113009001C01D92A439B207E1F70E9459000C94E3
S11300A0550B0C9400000E94680008950E94AE0055
S11300B008950E9479070E94B40A0E94F00083E523
S11300C090E00E94CA0A86E590E00E94CF0AFFCF22
S11300D0CF93DF931F92CDB7DEB781E08983BE0152
S11300E06F5F7F4F80E00E94DC078981811132C0FD
S11300F02FEF80E792E0215080409040E1F700C06C
S1130100000080918D009FEF980F993018F4909320
S11301108D0010C081110EC089E080938D00809104
S11301208C00882321F0815080938C0003C085E0EB
S113013080938C0040918D0050E060E070E080E09E
S11301400E94CB0240918C0050E060E070E081E0BE
S11301500E94CB020F90DF91CF910895CF93DF934C
S11301601F92CDB7DEB781E08983BE016F5F7F4FF9
S11301700E94DC07898181112FC02FEF80E792E074
S1130180215080409040E1F700C0000080918D0034
S1130190893020F48F5F80938D000EC0893061F424
S11301A010928D0080918C00853020F48F5F8093B5
S11301B08C0002C010928C0040918D0050E060E0F1
S11301C070E080E00E94CB0240918C0050E060E03F
S11301D070E081E00E94CB020F90DF91CF910895EF
S11301E00F931F93CF93DF93CDB7DEB7C054D109DC
S11301F00FB6F894DEBF0FBECDBF60E090E0B7C18C
S1130200492F50E0262F30E081E1829FF001839F47
S1130210F00D1124E05AFF4F8181DA01AA0FBB1FB0
S1130220AA0FBB1F01E010E00C0F1D1FA00FB11F90
S11302308C93828111968C93119712961C9212972B
S11302408081811104C0FD0141E043830DC08130F0
S113025059F4440F551F440F551FE1E0F0E0EC0F33
S1130260FD1FE40FF51F138241E0490F50E071E1D7
S1130270729FD001739FB00D1124A05ABF4F1396E3
S11302807C911397FA01EE0FFF1FEE0FFF1F01E0A1
S113029010E00C0F1D1FE00FF11F708314967C916A
S11302A07183128281110AC0440F551F440F551FD8
S11302B0F801E40FF51F41E043830DC0813059F488
S11302C0440F551F440F551FE1E0F0E0EC0FFD1FF4
S11302D0E40FF51F138242E0490F50E071E1729F71
S11302E0D001739FB00D1124A05ABF4F15967C9175
S11302F01597FA01EE0FFF1FEE0FFF1F01E010E04C
S11303000C0F1D1FE00FF11F708316967C917183F3
S1130310128281110AC0440F551F440F551FF80162
S1130320E40FF51F41E043830DC0813059F4440FBD
S1130330551F440F551FE1E0F0E0EC0FFD1FE40FE3
S1130340F51F138243E0490F50E071E1729FD00121
S1130350739FB00D1124A05ABF4F17967C91179725
S1130360FA01EE0FFF1FEE0FFF1F01E010E00C0F6C
S11303701D1FE00FF11F708318967C917183128208
S113038081110AC0440F551F440F551FF801E40F93
S1130390F51F41E043830DC0813059F4440F551FCC
S11303A0440F551FE1E0F0E0EC0FFD1FE40FF51FD3
S11303B0138244E0490F50E071E1729FD001739FB2
S11303C0B00D1124A05ABF4F19967C911997FA01C8
S11303D0EE0FFF1FEE0FFF1F01E010E00C0F1D1FBB
S11303E0E00FF11F70831A967C9171831282811140
S11303F00AC0440F551F440F551FF801E40FF51FA1
S113040041E043830DC0813059F4440F551F440F1C
S1130410551FE1E0F0E0EC0FFD1FE40FF51F138220
S113042045E0490F50E071E1729FD001739FB00D18
S11304301124A05ABF4F1B967C911B97FA01EE0F13
S1130440FF1FEE0FFF1F01E010E00C0F1D1FE00F58
S1130450F11F70831C967C917183128281110AC0F2
S1130460440F551F440F551FF801E40FF51F41E0D9
S113047043830DC0813059F4440F551F440F551F59
S1130480E1E0F0E0EC0FFD1FE40FF51F138246E0FE
S1130490490F50E071E1729FD001739FB00D112498
S11304A0A05ABF4F1D967C911D97FA01EE0FFF1FB6
S11304B0EE0FFF1F01E010E00C0F1D1FE00FF11FF6
S11304C070831E967C917183128281110AC0440F3D
S11304D0551F440F551FF801E40FF51F41E04383F6
S11304E00DC0813059F4440F551F440F551FE1E0EE
S11304F0F0E0EC0FFD1FE40FF51F138247E0490FF6
S113050050E071E1729FD001739FB00D1124A05A85
S1130510BF4F1F962C911F97FA01EE0FFF1FEE0F8E
S1130520FF1F01E010E00C0F1D1FE00FF11F2083DF
S113053050962C912183128281110AC0440F551FB9
S1130540440F551FF801E40FF51F81E083830DC0AC
S1130550813059F4440F551F440F551FE1E0F0E07A
S1130560EC0FFD1FE40FF51F1382985F6F5F62307D
S113057008F446CE60E1CE0101960E94FA08C05C00
S1130580DF4F0FB6F894DEBF0FBECDBFDF91CF9122
S11305901F910F910895CF93DF934A305105610560
S11305A0710508F08AC4823008F089C44A305105C4
S11305B008F087C4FA01E65DFF4F0C944F0B90E0FE
S11305C021E1289FF001299FF00D1124E05AFF4FEB
S11305D02081222319F0213099F175C421E1289F4B
S11305E0E001299FD00D1124C05ADF4F40E06A81F9
S11305F089810E94250840E06C818B810E94250836
S113060040E06E818D810E94250840E068858F81DD
S11306100E94250840E06A8589850E94250840E0FB
S11306206C858B850E94250841E06E858D850E942E
S1130630250841E068898F850E94250881E056C419
S113064021E1289FE001299FD00D1124C05ADF4FDA
S113065041E06A8189810E94250841E06C818B8197
S11306600E94250841E06E818D810E94250841E0A9
S113067068858F810E94250841E06A8589850E94EA
S1130680250841E06C858B850E94250840E06E8535
S11306908D850E94250840E068898F850E94250881
S11306A081E024C490E021E1289FF001299FF00D0E
S11306B01124E05AFF4F2081222319F0213099F1AF
S11306C004C421E1289FE001299FD00D1124C05AC0
S11306D0DF4F41E06A8189810E94250840E06C81F6
S11306E08B810E94250840E06E818D810E9425083F
S11306F041E068858F810E94250841E06A858985EB
S11307000E94250841E06C858B850E94250841E004
S11307106E858D850E94250841E068898F850E9439
S1130720250881E0E3C321E1289FE001299FD00D42
S11307301124C05ADF4F40E06A8189810E94250854
S113074041E06C818B810E94250841E06E818D819E
S11307500E94250840E068858F810E94250840E0BA
S11307606A8589850E94250840E06C858B850E94F6
S1130770250840E06E858D850E94250840E0688943
S11307808F850E94250881E0B1C390E021E1289F74
S1130790F001299FF00D1124E05AFF4F20812223FC
S11307A019F0213099F193C321E1289FE001299F99
S11307B0D00D1124C05ADF4F40E06A8189810E9424
S11307C0250840E06C818B810E94250841E06E8100
S11307D08D810E94250840E068858F810E9425084C
S11307E040E06A8589850E94250841E06C858B85F7
S11307F00E94250840E06E858D850E94250841E011
S113080068898F850E94250881E070C321E1289FB3
S1130810E001299FD00D1124C05ADF4F41E06A81C5
S113082089810E94250841E06C818B810E94250802
S113083040E06E818D810E94250841E068858F81AA
S11308400E94250841E06A8589850E94250840E0C8
S11308506C858B850E94250841E06E858D850E94FC
S1130860250840E068898F850E94250881E03EC301
S113087090E021E1289FF001299FF00D1124E05A16
S1130880FF4F2081222319F0213099F122C321E165
S1130890289FE001299FD00D1124C05ADF4F40E06A
S11308A06A8189810E94250840E06C818B810E94C5
S11308B0250840E06E818D810E94250840E068850E
S11308C08F810E94250841E06A8589850E94250858
S11308D041E06C858B850E94250840E06E858D85FE
S11308E00E94250841E068898F850E94250881E0DF
S11308F0FDC221E1289FE001299FD00D1124C05A97
S1130900DF4F41E06A8189810E94250841E06C81C2
S11309108B810E94250841E06E818D810E9425080B
S113092041E068858F810E94250840E06A858985B9
S11309300E94250840E06C858B850E94250841E0D3
S11309406E858D850E94250840E068898F850E9408
S1130950250881E0CBC290E021E1289FF001299F86
S1130960F00D1124E05AFF4F2081222319F0213089
S113097099F1B1C221E1289FE001299FD00D1124F2
S1130980C05ADF4F41E06A8189810E94250840E016
S11309906C818B810E94250840E06E818D810E94CC
S11309A0250841E068858F810E94250841E06A8519
S11309B089850E94250840E06C858B850E94250866
S11309C040E06E858D850E94250841E068898F8509
S11309D00E94250881E08AC221E1289FE001299F25
S11309E0D00D1124C05ADF4F40E06A8189810E94F2
S11309F0250841E06C818B810E94250841E06E81CD
S1130A008D810E94250840E068858F810E94250819
S1130A1040E06A8589850E94250841E06C858B85C4
S1130A200E94250841E06E858D850E94250840E0DE
S1130A3068898F850E94250881E058C290E021E1F1
S1130A40289FF001299FF00D1124E05AFF4F2081C7
S1130A50222319F0213099F140C221E1289FE001BD
S1130A60299FD00D1124C05ADF4F40E06A8189814B
S1130A700E94250841E06C818B810E94250840E09A
S1130A806E818D810E94250840E068858F810E94D7
S1130A90250841E06A8589850E94250840E06C8527
S1130AA08B850E94250840E06E858D850E9425086F
S1130AB041E068898F850E94250881E017C221E101
S1130AC0289FE001299FD00D1124C05ADF4F41E037
S1130AD06A8189810E94250840E06C818B810E9493
S1130AE0250841E06E818D810E94250841E06885DA
S1130AF08F810E94250840E06A8589850E94250827
S1130B0041E06C858B850E94250841E06E858D85CA
S1130B100E94250840E068898F850E94250881E0AD
S1130B20E5C190E021E1289FF001299FF00D1124F7
S1130B30E05AFF4F2081222319F0213099F1CFC1CF
S1130B4021E1289FE001299FD00D1124C05ADF4FD5
S1130B5040E06A8189810E94250841E06C818B8193
S1130B600E94250840E06E818D810E94250840E0A6
S1130B7068858F810E94250840E06A8589850E94E6
S1130B80250840E06C858B850E94250840E06E8531
S1130B908D850E94250841E068898F850E9425087B
S1130BA081E0A4C121E1289FE001299FD00D1124F7
S1130BB0C05ADF4F41E06A8189810E94250840E0E4
S1130BC06C818B810E94250841E06E818D810E9499
S1130BD0250841E068858F810E94250841E06A85E7
S1130BE089850E94250841E06C858B850E94250833
S1130BF041E06E858D850E94250840E068898F85D7
S1130C000E94250881E072C190E021E1289FF00153
S1130C10299FF00D1124E05AFF4F2081222319F05F
S1130C20213099F15EC121E1289FE001299FD00D77
S1130C301124C05ADF4F40E06A8189810E9425084F
S1130C4040E06C818B810E94250840E06E818D819B
S1130C500E94250841E068858F810E94250841E0B3
S1130C606A8589850E94250841E06C858B850E94F0
S1130C70250841E06E858D850E94250841E068893C
S1130C808F850E94250881E031C121E1289FE00180
S1130C90299FD00D1124C05ADF4F41E06A81898118
S1130CA00E94250841E06C818B810E94250841E067
S1130CB06E818D810E94250840E068858F810E94A5
S1130CC0250840E06A8589850E94250840E06C85F6
S1130CD08B850E94250840E06E858D850E9425083D
S1130CE040E068898F850E94250881E0FFC090E07C
S1130CF021E1289FF001299FF00D1124E05AFF4FB4
S1130D002081222319F0213099F1EDC021E1289F9F
S1130D10E001299FD00D1124C05ADF4F40E06A81C1
S1130D2089810E94250840E06C818B810E942508FE
S1130D3040E06E818D810E94250840E068858F81A6
S1130D400E94250840E06A8589850E94250840E0C4
S1130D506C858B850E94250840E06E858D850E94F8
S1130D60250841E068898F850E94250881E0BEC07E
S1130D7021E1289FE001299FD00D1124C05ADF4FA3
S1130D8041E06A8189810E94250841E06C818B8160
S1130D900E94250841E06E818D810E94250841E072
S1130DA068858F810E94250841E06A8589850E94B3
S1130DB0250841E06C858B850E94250841E06E85FD
S1130DC08D850E94250840E068898F850E9425084A
S1130DD081E08CC090E021E1289FF001299FF00D73
S1130DE01124E05AFF4F2081222319F0213099F178
S1130DF07CC021E1289FE001299FD00D1124C05A15
S1130E00DF4F40E06A8189810E94250840E06C81BF
S1130E108B810E94250840E06E818D810E94250807
S1130E2040E068858F810E94250841E06A858985B4
S1130E300E94250840E06C858B850E94250840E0CF
S1130E406E858D850E94250841E068898F850E9402
S1130E50250881E04BC021E1289FE001299FD00DA6
S1130E601124C05ADF4F41E06A8189810E9425081C
S1130E7041E06C818B810E94250841E06E818D8167
S1130E800E94250841E068858F810E94250840E082
S1130E906A8589850E94250841E06C858B850E94BE
S1130EA0250841E06E858D850E94250840E068890B
S1130EB08F850E94250881E019C082E017C083E075
S1130EC015C081E013C081E011C081E00FC081E052
S1130ED00DC081E00BC081E009C081E007C081E062
S1130EE005C081E003C081E001C081E0DF91CF91C2
S1130EF00895CF93DF93CDB7DEB72C970FB6F89450
S1130F00DEBF0FBECDBF20E046C0822F90E0FC01C3
S1130F10EE0FFF1FE80FF91FEE57FF4F3081DC0182
S1130F20AA0FBB1FAA0FBB1F41E050E04C0F5D1F6F
S1130F30A40FB51F3C93318111963C933281332326
S1130F4019F0313079F01BC0FC01EE0FFF1FEE0FDA
S1130F50FF1F41E050E04C0F5D1FE40FF51F31E02F
S1130F6032830DC0FC01EE0FFF1FEE0FFF1F41E0A7
S1130F7050E04C0F5D1FE40FF51F32E03283880F01
S1130F80991F880F991FE1E0F0E0EC0FFD1FE80FB7
S1130F90F91F13822F5F233008F4B7CF63E0CE012B
S1130FA001960E94FA082C960FB6F894DEBF0FBE85
S1130FB0CDBFDF91CF910895EF92FF920F931F93CE
S1130FC0CF93DF931F92CDB7DEB7833098F56115C9
S1130FD0710591F17B0190E08C01000F111F080F46
S1130FE0191F0E571F4FAE014F5F5F4FF80161810C
S1130FF080810E94B308F8018281882319F081302E
S113100061F016C08981882329F0813089F4F701C1
S113101080830EC0F70110820BC08981882329F0D8
S1131020813031F4F701108203C081E0F70180833D
S113103081E003C083E001C082E00F90DF91CF9193
S11310401F910F91FF90EF900895843008F07FC0B6
S1131050683008F07EC0423008F07DC04423D9F1E6
S1131060413009F07AC0813091F028F08230D9F013
S1131070833029F174C02BB381E090E002C0880F63
S1131080991F6A95E2F7822B8BBB81E0089528B300
S113109081E090E002C0880F991F6A95E2F7822BE5
S11310A088BB81E0089525B381E090E002C0880FF9
S11310B0991F6A95E2F7822B85BB81E0089522B3DC
S11310C081E090E002C0880F991F6A95E2F7822BB5
S11310D082BB81E00895813099F028F08230E9F0F4
S11310E0833041F13EC02BB381E090E002C0880F11
S11310F0991F6A95E2F7809582238BBB81E008955E
S113110028B381E090E002C0880F991F6A95E2F746
S11311108095822388BB81E0089525B381E090E027
S113112002C0880F991F6A95E2F78095822385BBD8
S113113081E0089522B381E090E002C0880F991FF6
S11311406A95E2F78095822382BB81E0089583E06B
S1131150089584E0089586E0089581E0089581E08B
S1131160089581E008958430E8F56830E8F5411584
S11311705105E1F1813091F028F08230D9F08330CB
S113118029F136C089B390E002C0959587956A9598
S1131190E2F78170FA01808381E0089586B390E0DC
S11311A002C0959587956A95E2F78170FA0180836C
S11311B081E0089583B390E002C0959587956A9580
S11311C0E2F78170FA01808381E0089580B390E0B2
S11311D002C0959587956A95E2F78170FA0180833C
S11311E081E0089583E0089584E0089582E00895FD
S11311F081E00895CF93DF93AC01892B11F080E057
S113120001C082E090E0AAC1E92FF0E0EE0FFF1FD9
S1131210EE0FFF1FE40FF51F2081243008F096C164
S11312203181383008F094C17381723008F092C172
S11312307281733008F090C1213009F468C038F02D
S1131240223009F4C4C0233009F421C186C17130AD
S113125021F090F17230C1F080C12AB3A1E0B0E076
S1131260ED0102C0CC0FDD1F3A95E2F73C2F30951B
S113127023232ABB2BB3018002C0AA0FBB1F0A94ED
S1131280E2F7A22BABBB69C12AB3A1E0B0E0ED0148
S113129002C0CC0FDD1F3A95E2F73C2F3095232393
S11312A02ABB2BB3018002C0AA0FBB1F0A94E2F72A
S11312B0A095A223ABBB51C17AB3A1E0B0E0ED018C
S11312C002C0CC0FDD1F3A95E2F79E01272B2ABB03
S11312D02381222379F0213009F03FC17BB321E03F
S11312E030E0018002C0220F331F0A94E2F7272B5B
S11312F02BBB33C17BB321E030E0018002C0220F5D
S1131300331F0A94E2F7209527232BBB26C17130A3
S113131021F090F17230C1F020C127B3A1E0B0E018
S1131320ED0102C0CC0FDD1F3A95E2F73C2F30955A
S1131330232327BB28B3018002C0AA0FBB1F0A9432
S1131340E2F7A22BA8BB09C127B3A1E0B0E0ED01ED
S113135002C0CC0FDD1F3A95E2F73C2F30952323D2
S113136027BB28B3018002C0AA0FBB1F0A94E2F76F
S1131370A095A223A8BBF1C077B3A1E0B0E0ED0132
S113138002C0CC0FDD1F3A95E2F79E01272B27BB45
S11313902381222379F0213009F0DFC078B321E0E2
S11313A030E0018002C0220F331F0A94E2F7272B9A
S11313B028BBD3C078B321E030E0018002C0220F03
S11313C0331F0A94E2F72095272328BBC6C0713047
S11313D021F090F17230C1F0C0C024B3A1E0B0E0BC
S11313E0ED0102C0CC0FDD1F3A95E2F73C2F30959A
S11313F0232324BB25B3018002C0AA0FBB1F0A9478
S1131400E2F7A22BA5BBA9C024B3A1E0B0E0ED0193
S113141002C0CC0FDD1F3A95E2F73C2F3095232311
S113142024BB25B3018002C0AA0FBB1F0A94E2F7B4
S1131430A095A223A5BB91C074B3A1E0B0E0ED01D7
S113144002C0CC0FDD1F3A95E2F79E01272B24BB87
S11314502381222379F0213009F07FC075B321E084
S113146030E0018002C0220F331F0A94E2F7272BD9
S113147025BB73C075B321E030E0018002C0220FA8
S1131480331F0A94E2F72095272325BB66C07130E9
S113149021F090F17230C1F060C021B3A1E0B0E05E
S11314A0ED0102C0CC0FDD1F3A95E2F73C2F3095D9
S11314B0232321BB22B3018002C0AA0FBB1F0A94BD
S11314C0E2F7A22BA2BB49C021B3A1E0B0E0ED0139
S11314D002C0CC0FDD1F3A95E2F73C2F3095232351
S11314E021BB22B3018002C0AA0FBB1F0A94E2F7FA
S11314F0A095A223A2BB31C071B3A1E0B0E0ED017D
S113150002C0CC0FDD1F3A95E2F79E01272B21BBC9
S11315102381222371F0213001F572B321E030E000
S1131520018002C0220F331F0A94E2F7272B22BB4B
S113153014C072B321E030E0018002C0220F331FD7
S11315400A94E2F72095272322BB07C083E005C055
S113155084E003C086E001C085E09F5F961708F42D
S113156053CEDF91CF9108958FB780688FBF85B731
S11315708C7F85BF8BB780648BBF85B7837F85BF26
S11315808BB780688BBF84B78F7B84BF8BB7806237
S11315908BBF089590939300809392000895909345
S11315A091008093900008951F920F920FB60F92AE
S11315B011242F933F934F935F936F937F938F9354
S11315C09F93AF93BF93EF93FF93E0919200F091B9
S11315D09300309709F00995FF91EF91BF91AF9176
S11315E09F918F917F916F915F914F913F912F9137
S11315F00F900FBE0F901F9018951F920F920FB669
S11316000F9211242F933F934F935F936F937F9384
S11316108F939F93AF93BF93EF93FF93E0919000C9
S1131620F0919100309709F00995FF91EF91BF91E6
S1131630AF919F918F917F916F915F914F913F9166
S11316402F910F900FBE0F901F9018951F920F921D
S11316500FB60F9211242F933F934F935F936F9381
S11316607F938F939F93AF93BF93EF93FF93E091F7
S11316708E00F0918F00309709F00995FF91EF915A
S1131680BF91AF919F918F917F916F915F914F9196
S11316903F912F910F900FBE0F901F901895EE0F52
S11116A0FF1F0590F491E02D0994F894FFCFFC
S11316AE0100000001000200030004000500060012
S11316BE07010100010101020103010401050106F4
S10F16CE010703020003030003020000F4
S9030000FC
